{
  "_format": "hh-sol-artifact-1",
  "contractName": "MyNFT",
  "sourceName": "contracts/MyNFT.sol",
  "abi": [
    {
      "inputs": [],
      "stateMutability": "nonpayable",
      "type": "constructor"
    },
    {
      "anonymous": false,
      "inputs": [
        {
          "indexed": true,
          "internalType": "address",
          "name": "owner",
          "type": "address"
        },
        {
          "indexed": true,
          "internalType": "address",
          "name": "approved",
          "type": "address"
        },
        {
          "indexed": true,
          "internalType": "uint256",
          "name": "tokenId",
          "type": "uint256"
        }
      ],
      "name": "Approval",
      "type": "event"
    },
    {
      "anonymous": false,
      "inputs": [
        {
          "indexed": true,
          "internalType": "address",
          "name": "owner",
          "type": "address"
        },
        {
          "indexed": true,
          "internalType": "address",
          "name": "operator",
          "type": "address"
        },
        {
          "indexed": false,
          "internalType": "bool",
          "name": "approved",
          "type": "bool"
        }
      ],
      "name": "ApprovalForAll",
      "type": "event"
    },
    {
      "anonymous": false,
      "inputs": [
        {
          "indexed": true,
          "internalType": "address",
          "name": "previousOwner",
          "type": "address"
        },
        {
          "indexed": true,
          "internalType": "address",
          "name": "newOwner",
          "type": "address"
        }
      ],
      "name": "OwnershipTransferred",
      "type": "event"
    },
    {
      "anonymous": false,
      "inputs": [
        {
          "indexed": true,
          "internalType": "address",
          "name": "from",
          "type": "address"
        },
        {
          "indexed": true,
          "internalType": "address",
          "name": "to",
          "type": "address"
        },
        {
          "indexed": true,
          "internalType": "uint256",
          "name": "tokenId",
          "type": "uint256"
        }
      ],
      "name": "Transfer",
      "type": "event"
    },
    {
      "inputs": [],
      "name": "MAX_PHASE_ONE_SUPPLY",
      "outputs": [
        {
          "internalType": "uint256",
          "name": "",
          "type": "uint256"
        }
      ],
      "stateMutability": "view",
      "type": "function"
    },
    {
      "inputs": [],
      "name": "MAX_PHASE_TWO_SUPPLY",
      "outputs": [
        {
          "internalType": "uint256",
          "name": "",
          "type": "uint256"
        }
      ],
      "stateMutability": "view",
      "type": "function"
    },
    {
      "inputs": [],
      "name": "MAX_SUPPLY",
      "outputs": [
        {
          "internalType": "uint256",
          "name": "",
          "type": "uint256"
        }
      ],
      "stateMutability": "view",
      "type": "function"
    },
    {
      "inputs": [
        {
          "internalType": "address[]",
          "name": "_addresses",
          "type": "address[]"
        }
      ],
      "name": "addToPhaseOneWhitelist",
      "outputs": [],
      "stateMutability": "nonpayable",
      "type": "function"
    },
    {
      "inputs": [
        {
          "internalType": "address[]",
          "name": "_addresses",
          "type": "address[]"
        }
      ],
      "name": "addToPhaseTwoWhitelist",
      "outputs": [],
      "stateMutability": "nonpayable",
      "type": "function"
    },
    {
      "inputs": [
        {
          "internalType": "address",
          "name": "to",
          "type": "address"
        },
        {
          "internalType": "uint256",
          "name": "tokenId",
          "type": "uint256"
        }
      ],
      "name": "approve",
      "outputs": [],
      "stateMutability": "nonpayable",
      "type": "function"
    },
    {
      "inputs": [
        {
          "internalType": "address",
          "name": "owner",
          "type": "address"
        }
      ],
      "name": "balanceOf",
      "outputs": [
        {
          "internalType": "uint256",
          "name": "",
          "type": "uint256"
        }
      ],
      "stateMutability": "view",
      "type": "function"
    },
    {
      "inputs": [
        {
          "internalType": "uint256",
          "name": "tokenId",
          "type": "uint256"
        }
      ],
      "name": "getApproved",
      "outputs": [
        {
          "internalType": "address",
          "name": "",
          "type": "address"
        }
      ],
      "stateMutability": "view",
      "type": "function"
    },
    {
      "inputs": [
        {
          "internalType": "address",
          "name": "owner",
          "type": "address"
        },
        {
          "internalType": "address",
          "name": "operator",
          "type": "address"
        }
      ],
      "name": "isApprovedForAll",
      "outputs": [
        {
          "internalType": "bool",
          "name": "",
          "type": "bool"
        }
      ],
      "stateMutability": "view",
      "type": "function"
    },
    {
      "inputs": [
        {
          "internalType": "address",
          "name": "_address",
          "type": "address"
        }
      ],
      "name": "isPhaseOneWhitelisted",
      "outputs": [
        {
          "internalType": "bool",
          "name": "",
          "type": "bool"
        }
      ],
      "stateMutability": "view",
      "type": "function"
    },
    {
      "inputs": [
        {
          "internalType": "address",
          "name": "_address",
          "type": "address"
        }
      ],
      "name": "isPhaseTwoWhitelisted",
      "outputs": [
        {
          "internalType": "bool",
          "name": "",
          "type": "bool"
        }
      ],
      "stateMutability": "view",
      "type": "function"
    },
    {
      "inputs": [],
      "name": "mint",
      "outputs": [],
      "stateMutability": "nonpayable",
      "type": "function"
    },
    {
      "inputs": [],
      "name": "name",
      "outputs": [
        {
          "internalType": "string",
          "name": "",
          "type": "string"
        }
      ],
      "stateMutability": "view",
      "type": "function"
    },
    {
      "inputs": [],
      "name": "owner",
      "outputs": [
        {
          "internalType": "address",
          "name": "",
          "type": "address"
        }
      ],
      "stateMutability": "view",
      "type": "function"
    },
    {
      "inputs": [
        {
          "internalType": "uint256",
          "name": "tokenId",
          "type": "uint256"
        }
      ],
      "name": "ownerOf",
      "outputs": [
        {
          "internalType": "address",
          "name": "",
          "type": "address"
        }
      ],
      "stateMutability": "view",
      "type": "function"
    },
    {
      "inputs": [],
      "name": "phaseOneCount",
      "outputs": [
        {
          "internalType": "uint256",
          "name": "",
          "type": "uint256"
        }
      ],
      "stateMutability": "view",
      "type": "function"
    },
    {
      "inputs": [
        {
          "internalType": "address",
          "name": "",
          "type": "address"
        }
      ],
      "name": "phaseOneWhitelist",
      "outputs": [
        {
          "internalType": "bool",
          "name": "",
          "type": "bool"
        }
      ],
      "stateMutability": "view",
      "type": "function"
    },
    {
      "inputs": [],
      "name": "phaseThreeCount",
      "outputs": [
        {
          "internalType": "uint256",
          "name": "",
          "type": "uint256"
        }
      ],
      "stateMutability": "view",
      "type": "function"
    },
    {
      "inputs": [],
      "name": "phaseTwoCount",
      "outputs": [
        {
          "internalType": "uint256",
          "name": "",
          "type": "uint256"
        }
      ],
      "stateMutability": "view",
      "type": "function"
    },
    {
      "inputs": [
        {
          "internalType": "address",
          "name": "",
          "type": "address"
        }
      ],
      "name": "phaseTwoWhitelist",
      "outputs": [
        {
          "internalType": "bool",
          "name": "",
          "type": "bool"
        }
      ],
      "stateMutability": "view",
      "type": "function"
    },
    {
      "inputs": [
        {
          "internalType": "address[]",
          "name": "_addresses",
          "type": "address[]"
        }
      ],
      "name": "removeFromPhaseOneWhitelist",
      "outputs": [],
      "stateMutability": "nonpayable",
      "type": "function"
    },
    {
      "inputs": [
        {
          "internalType": "address[]",
          "name": "_addresses",
          "type": "address[]"
        }
      ],
      "name": "removeFromPhaseTwoWhitelist",
      "outputs": [],
      "stateMutability": "nonpayable",
      "type": "function"
    },
    {
      "inputs": [],
      "name": "renounceOwnership",
      "outputs": [],
      "stateMutability": "nonpayable",
      "type": "function"
    },
    {
      "inputs": [
        {
          "internalType": "address",
          "name": "from",
          "type": "address"
        },
        {
          "internalType": "address",
          "name": "to",
          "type": "address"
        },
        {
          "internalType": "uint256",
          "name": "tokenId",
          "type": "uint256"
        }
      ],
      "name": "safeTransferFrom",
      "outputs": [],
      "stateMutability": "nonpayable",
      "type": "function"
    },
    {
      "inputs": [
        {
          "internalType": "address",
          "name": "from",
          "type": "address"
        },
        {
          "internalType": "address",
          "name": "to",
          "type": "address"
        },
        {
          "internalType": "uint256",
          "name": "tokenId",
          "type": "uint256"
        },
        {
          "internalType": "bytes",
          "name": "data",
          "type": "bytes"
        }
      ],
      "name": "safeTransferFrom",
      "outputs": [],
      "stateMutability": "nonpayable",
      "type": "function"
    },
    {
      "inputs": [
        {
          "internalType": "address",
          "name": "operator",
          "type": "address"
        },
        {
          "internalType": "bool",
          "name": "approved",
          "type": "bool"
        }
      ],
      "name": "setApprovalForAll",
      "outputs": [],
      "stateMutability": "nonpayable",
      "type": "function"
    },
    {
      "inputs": [
        {
          "internalType": "bytes4",
          "name": "interfaceId",
          "type": "bytes4"
        }
      ],
      "name": "supportsInterface",
      "outputs": [
        {
          "internalType": "bool",
          "name": "",
          "type": "bool"
        }
      ],
      "stateMutability": "view",
      "type": "function"
    },
    {
      "inputs": [],
      "name": "symbol",
      "outputs": [
        {
          "internalType": "string",
          "name": "",
          "type": "string"
        }
      ],
      "stateMutability": "view",
      "type": "function"
    },
    {
      "inputs": [
        {
          "internalType": "uint256",
          "name": "tokenId",
          "type": "uint256"
        }
      ],
      "name": "tokenURI",
      "outputs": [
        {
          "internalType": "string",
          "name": "",
          "type": "string"
        }
      ],
      "stateMutability": "view",
      "type": "function"
    },
    {
      "inputs": [],
      "name": "totalSupply",
      "outputs": [
        {
          "internalType": "uint256",
          "name": "",
          "type": "uint256"
        }
      ],
      "stateMutability": "view",
      "type": "function"
    },
    {
      "inputs": [
        {
          "internalType": "address",
          "name": "from",
          "type": "address"
        },
        {
          "internalType": "address",
          "name": "to",
          "type": "address"
        },
        {
          "internalType": "uint256",
          "name": "tokenId",
          "type": "uint256"
        }
      ],
      "name": "transferFrom",
      "outputs": [],
      "stateMutability": "nonpayable",
      "type": "function"
    },
    {
      "inputs": [
        {
          "internalType": "address",
          "name": "newOwner",
          "type": "address"
        }
      ],
      "name": "transferOwnership",
      "outputs": [],
      "stateMutability": "nonpayable",
      "type": "function"
    }
  ],
  "bytecode": "0x60806040523480156200001157600080fd5b506040518060400160405280600581526020017f4d794e46540000000000000000000000000000000000000000000000000000008152506040518060400160405280600381526020017f4e4654000000000000000000000000000000000000000000000000000000000081525081600090816200008f919062000412565b508060019081620000a1919062000412565b505050620000c4620000b8620000ca60201b60201c565b620000d260201b60201c565b620004f9565b600033905090565b6000600660009054906101000a900473ffffffffffffffffffffffffffffffffffffffff16905081600660006101000a81548173ffffffffffffffffffffffffffffffffffffffff021916908373ffffffffffffffffffffffffffffffffffffffff1602179055508173ffffffffffffffffffffffffffffffffffffffff168173ffffffffffffffffffffffffffffffffffffffff167f8be0079c531659141344cd1fd0a4f28419497f9722a3daafe3b4186f6b6457e060405160405180910390a35050565b600081519050919050565b7f4e487b7100000000000000000000000000000000000000000000000000000000600052604160045260246000fd5b7f4e487b7100000000000000000000000000000000000000000000000000000000600052602260045260246000fd5b600060028204905060018216806200021a57607f821691505b60208210810362000230576200022f620001d2565b5b50919050565b60008190508160005260206000209050919050565b60006020601f8301049050919050565b600082821b905092915050565b6000600883026200029a7fffffffffffffffffffffffffffffffffffffffffffffffffffffffffffffffff826200025b565b620002a686836200025b565b95508019841693508086168417925050509392505050565b6000819050919050565b6000819050919050565b6000620002f3620002ed620002e784620002be565b620002c8565b620002be565b9050919050565b6000819050919050565b6200030f83620002d2565b620003276200031e82620002fa565b84845462000268565b825550505050565b600090565b6200033e6200032f565b6200034b81848462000304565b505050565b5b8181101562000373576200036760008262000334565b60018101905062000351565b5050565b601f821115620003c2576200038c8162000236565b62000397846200024b565b81016020851015620003a7578190505b620003bf620003b6856200024b565b83018262000350565b50505b505050565b600082821c905092915050565b6000620003e760001984600802620003c7565b1980831691505092915050565b6000620004028383620003d4565b9150826002028217905092915050565b6200041d8262000198565b67ffffffffffffffff811115620004395762000438620001a3565b5b62000445825462000201565b6200045282828562000377565b600060209050601f8311600181146200048a576000841562000475578287015190505b620004818582620003f4565b865550620004f1565b601f1984166200049a8662000236565b60005b82811015620004c4578489015182556001820191506020850194506020810190506200049d565b86831015620004e45784890151620004e0601f891682620003d4565b8355505b6001600288020188555050505b505050505050565b61345180620005096000396000f3fe608060405234801561001057600080fd5b50600436106101f05760003560e01c806370a082311161010f578063b5c62ba1116100a2578063c87b56dd11610071578063c87b56dd14610581578063e985e9c5146105b1578063f2fde38b146105e1578063f7b42656146105fd576101f0565b8063b5c62ba11461050f578063b771b8a51461052d578063b88d4fde14610549578063b922a46714610565576101f0565b806395d89b41116100de57806395d89b411461049d57806399a71a0e146104bb5780639ae6031d146104d7578063a22cb465146104f3576101f0565b806370a0823114610427578063715018a6146104575780637ae70c7e146104615780638da5cb5b1461047f576101f0565b806323b872dd116101875780634799132b116101565780634799132b1461038b5780635fd74922146103a95780636352211e146103d9578063651140a814610409576101f0565b806323b872dd1461031757806328af79dd1461033357806332cb6b0c1461035157806342842e0e1461036f576101f0565b8063095ea7b3116101c3578063095ea7b3146102a35780630f22c64e146102bf5780631249c58b146102ef57806318160ddd146102f9576101f0565b806301ffc9a7146101f557806306fdde0314610225578063071c4ff014610243578063081812fc14610273575b600080fd5b61020f600480360381019061020a91906122d4565b61062d565b60405161021c919061231c565b60405180910390f35b61022d61070f565b60405161023a91906123c7565b60405180910390f35b61025d60048036038101906102589190612447565b6107a1565b60405161026a919061231c565b60405180910390f35b61028d600480360381019061028891906124aa565b6107c1565b60405161029a91906124e6565b60405180910390f35b6102bd60048036038101906102b89190612501565b610807565b005b6102d960048036038101906102d49190612447565b61091e565b6040516102e6919061231c565b60405180910390f35b6102f7610974565b005b610301610ba3565b60405161030e9190612550565b60405180910390f35b610331600480360381019061032c919061256b565b610bc7565b005b61033b610c27565b6040516103489190612550565b60405180910390f35b610359610c2d565b6040516103669190612550565b60405180910390f35b6103896004803603810190610384919061256b565b610c32565b005b610393610c52565b6040516103a09190612550565b60405180910390f35b6103c360048036038101906103be9190612447565b610c58565b6040516103d0919061231c565b60405180910390f35b6103f360048036038101906103ee91906124aa565b610cae565b60405161040091906124e6565b60405180910390f35b610411610d34565b60405161041e9190612550565b60405180910390f35b610441600480360381019061043c9190612447565b610d3a565b60405161044e9190612550565b60405180910390f35b61045f610df1565b005b610469610e05565b6040516104769190612550565b60405180910390f35b610487610e0a565b60405161049491906124e6565b60405180910390f35b6104a5610e34565b6040516104b291906123c7565b60405180910390f35b6104d560048036038101906104d09190612706565b610ec6565b005b6104f160048036038101906104ec9190612706565b610f63565b005b61050d6004803603810190610508919061277b565b611000565b005b610517611016565b6040516105249190612550565b60405180910390f35b61054760048036038101906105429190612706565b61101b565b005b610563600480360381019061055e9190612870565b6110b8565b005b61057f600480360381019061057a9190612706565b61111a565b005b61059b600480360381019061059691906124aa565b6111b7565b6040516105a891906123c7565b60405180910390f35b6105cb60048036038101906105c691906128f3565b61121f565b6040516105d8919061231c565b60405180910390f35b6105fb60048036038101906105f69190612447565b6112b3565b005b61061760048036038101906106129190612447565b611336565b604051610624919061231c565b60405180910390f35b60007f80ac58cd000000000000000000000000000000000000000000000000000000007bffffffffffffffffffffffffffffffffffffffffffffffffffffffff1916827bffffffffffffffffffffffffffffffffffffffffffffffffffffffff191614806106f857507f5b5e139f000000000000000000000000000000000000000000000000000000007bffffffffffffffffffffffffffffffffffffffffffffffffffffffff1916827bffffffffffffffffffffffffffffffffffffffffffffffffffffffff1916145b80610708575061070782611356565b5b9050919050565b60606000805461071e90612962565b80601f016020809104026020016040519081016040528092919081815260200182805461074a90612962565b80156107975780601f1061076c57610100808354040283529160200191610797565b820191906000526020600020905b81548152906001019060200180831161077a57829003601f168201915b5050505050905090565b600b6020528060005260406000206000915054906101000a900460ff1681565b60006107cc826113c0565b6004600083815260200190815260200160002060009054906101000a900473ffffffffffffffffffffffffffffffffffffffff169050919050565b600061081282610cae565b90508073ffffffffffffffffffffffffffffffffffffffff168373ffffffffffffffffffffffffffffffffffffffff1603610882576040517f08c379a000000000000000000000000000000000000000000000000000000000815260040161087990612a05565b60405180910390fd5b8073ffffffffffffffffffffffffffffffffffffffff166108a161140b565b73ffffffffffffffffffffffffffffffffffffffff1614806108d057506108cf816108ca61140b565b61121f565b5b61090f576040517f08c379a000000000000000000000000000000000000000000000000000000000815260040161090690612a97565b60405180910390fd5b6109198383611413565b505050565b6000600b60008373ffffffffffffffffffffffffffffffffffffffff1673ffffffffffffffffffffffffffffffffffffffff16815260200190815260200160002060009054906101000a900460ff169050919050565b601e61097e610ba3565b106109be576040517f08c379a00000000000000000000000000000000000000000000000000000000081526004016109b590612b03565b60405180910390fd5b60056109c8610ba3565b1015610a9457600a60003373ffffffffffffffffffffffffffffffffffffffff1673ffffffffffffffffffffffffffffffffffffffff16815260200190815260200160002060009054906101000a900460ff16610a5a576040517f08c379a0000000000000000000000000000000000000000000000000000000008152600401610a5190612b95565b60405180910390fd5b610a77336001610a68610ba3565b610a729190612be4565b6114cc565b60076000815480929190610a8a90612c18565b9190505550610ba1565b600f610a9e610ba3565b1015610b6a57600b60003373ffffffffffffffffffffffffffffffffffffffff1673ffffffffffffffffffffffffffffffffffffffff16815260200190815260200160002060009054906101000a900460ff16610b30576040517f08c379a0000000000000000000000000000000000000000000000000000000008152600401610b2790612cd2565b60405180910390fd5b610b4d336001610b3e610ba3565b610b489190612be4565b6114cc565b60086000815480929190610b6090612c18565b9190505550610ba0565b610b87336001610b78610ba3565b610b829190612be4565b6114cc565b60096000815480929190610b9a90612c18565b91905055505b5b565b6000600954600854600754610bb89190612be4565b610bc29190612be4565b905090565b610bd8610bd261140b565b826114ea565b610c17576040517f08c379a0000000000000000000000000000000000000000000000000000000008152600401610c0e90612d64565b60405180910390fd5b610c2283838361157f565b505050565b60075481565b601e81565b610c4d838383604051806020016040528060008152506110b8565b505050565b60095481565b6000600a60008373ffffffffffffffffffffffffffffffffffffffff1673ffffffffffffffffffffffffffffffffffffffff16815260200190815260200160002060009054906101000a900460ff169050919050565b600080610cba83611878565b9050600073ffffffffffffffffffffffffffffffffffffffff168173ffffffffffffffffffffffffffffffffffffffff1603610d2b576040517f08c379a0000000000000000000000000000000000000000000000000000000008152600401610d2290612dd0565b60405180910390fd5b80915050919050565b60085481565b60008073ffffffffffffffffffffffffffffffffffffffff168273ffffffffffffffffffffffffffffffffffffffff1603610daa576040517f08c379a0000000000000000000000000000000000000000000000000000000008152600401610da190612e62565b60405180910390fd5b600360008373ffffffffffffffffffffffffffffffffffffffff1673ffffffffffffffffffffffffffffffffffffffff168152602001908152602001600020549050919050565b610df96118b5565b610e036000611933565b565b600581565b6000600660009054906101000a900473ffffffffffffffffffffffffffffffffffffffff16905090565b606060018054610e4390612962565b80601f0160208091040260200160405190810160405280929190818152602001828054610e6f90612962565b8015610ebc5780601f10610e9157610100808354040283529160200191610ebc565b820191906000526020600020905b815481529060010190602001808311610e9f57829003601f168201915b5050505050905090565b610ece6118b5565b60005b8151811015610f5f576001600b6000848481518110610ef357610ef2612e82565b5b602002602001015173ffffffffffffffffffffffffffffffffffffffff1673ffffffffffffffffffffffffffffffffffffffff16815260200190815260200160002060006101000a81548160ff0219169083151502179055508080610f5790612c18565b915050610ed1565b5050565b610f6b6118b5565b60005b8151811015610ffc576001600a6000848481518110610f9057610f8f612e82565b5b602002602001015173ffffffffffffffffffffffffffffffffffffffff1673ffffffffffffffffffffffffffffffffffffffff16815260200190815260200160002060006101000a81548160ff0219169083151502179055508080610ff490612c18565b915050610f6e565b5050565b61101261100b61140b565b83836119f9565b5050565b600f81565b6110236118b5565b60005b81518110156110b4576000600b600084848151811061104857611047612e82565b5b602002602001015173ffffffffffffffffffffffffffffffffffffffff1673ffffffffffffffffffffffffffffffffffffffff16815260200190815260200160002060006101000a81548160ff02191690831515021790555080806110ac90612c18565b915050611026565b5050565b6110c96110c361140b565b836114ea565b611108576040517f08c379a00000000000000000000000000000000000000000000000000000000081526004016110ff90612d64565b60405180910390fd5b61111484848484611b65565b50505050565b6111226118b5565b60005b81518110156111b3576000600a600084848151811061114757611146612e82565b5b602002602001015173ffffffffffffffffffffffffffffffffffffffff1673ffffffffffffffffffffffffffffffffffffffff16815260200190815260200160002060006101000a81548160ff02191690831515021790555080806111ab90612c18565b915050611125565b5050565b60606111c2826113c0565b60006111cc611bc1565b905060008151116111ec5760405180602001604052806000815250611217565b806111f684611bd8565b604051602001611207929190612eed565b6040516020818303038152906040525b915050919050565b6000600560008473ffffffffffffffffffffffffffffffffffffffff1673ffffffffffffffffffffffffffffffffffffffff16815260200190815260200160002060008373ffffffffffffffffffffffffffffffffffffffff1673ffffffffffffffffffffffffffffffffffffffff16815260200190815260200160002060009054906101000a900460ff16905092915050565b6112bb6118b5565b600073ffffffffffffffffffffffffffffffffffffffff168173ffffffffffffffffffffffffffffffffffffffff160361132a576040517f08c379a000000000000000000000000000000000000000000000000000000000815260040161132190612f83565b60405180910390fd5b61133381611933565b50565b600a6020528060005260406000206000915054906101000a900460ff1681565b60007f01ffc9a7000000000000000000000000000000000000000000000000000000007bffffffffffffffffffffffffffffffffffffffffffffffffffffffff1916827bffffffffffffffffffffffffffffffffffffffffffffffffffffffff1916149050919050565b6113c981611ca6565b611408576040517f08c379a00000000000000000000000000000000000000000000000000000000081526004016113ff90612dd0565b60405180910390fd5b50565b600033905090565b816004600083815260200190815260200160002060006101000a81548173ffffffffffffffffffffffffffffffffffffffff021916908373ffffffffffffffffffffffffffffffffffffffff160217905550808273ffffffffffffffffffffffffffffffffffffffff1661148683610cae565b73ffffffffffffffffffffffffffffffffffffffff167f8c5be1e5ebec7d5bd14f71427d1e84f3dd0314c0f7b2291e5b200ac8c7c3b92560405160405180910390a45050565b6114e6828260405180602001604052806000815250611ce7565b5050565b6000806114f683610cae565b90508073ffffffffffffffffffffffffffffffffffffffff168473ffffffffffffffffffffffffffffffffffffffff1614806115385750611537818561121f565b5b8061157657508373ffffffffffffffffffffffffffffffffffffffff1661155e846107c1565b73ffffffffffffffffffffffffffffffffffffffff16145b91505092915050565b8273ffffffffffffffffffffffffffffffffffffffff1661159f82610cae565b73ffffffffffffffffffffffffffffffffffffffff16146115f5576040517f08c379a00000000000000000000000000000000000000000000000000000000081526004016115ec90613015565b60405180910390fd5b600073ffffffffffffffffffffffffffffffffffffffff168273ffffffffffffffffffffffffffffffffffffffff1603611664576040517f08c379a000000000000000000000000000000000000000000000000000000000815260040161165b906130a7565b60405180910390fd5b6116718383836001611d42565b8273ffffffffffffffffffffffffffffffffffffffff1661169182610cae565b73ffffffffffffffffffffffffffffffffffffffff16146116e7576040517f08c379a00000000000000000000000000000000000000000000000000000000081526004016116de90613015565b60405180910390fd5b6004600082815260200190815260200160002060006101000a81549073ffffffffffffffffffffffffffffffffffffffff02191690556001600360008573ffffffffffffffffffffffffffffffffffffffff1673ffffffffffffffffffffffffffffffffffffffff168152602001908152602001600020600082825403925050819055506001600360008473ffffffffffffffffffffffffffffffffffffffff1673ffffffffffffffffffffffffffffffffffffffff16815260200190815260200160002060008282540192505081905550816002600083815260200190815260200160002060006101000a81548173ffffffffffffffffffffffffffffffffffffffff021916908373ffffffffffffffffffffffffffffffffffffffff160217905550808273ffffffffffffffffffffffffffffffffffffffff168473ffffffffffffffffffffffffffffffffffffffff167fddf252ad1be2c89b69c2b068fc378daa952ba7f163c4a11628f55a4df523b3ef60405160405180910390a46118738383836001611d48565b505050565b60006002600083815260200190815260200160002060009054906101000a900473ffffffffffffffffffffffffffffffffffffffff169050919050565b6118bd61140b565b73ffffffffffffffffffffffffffffffffffffffff166118db610e0a565b73ffffffffffffffffffffffffffffffffffffffff1614611931576040517f08c379a000000000000000000000000000000000000000000000000000000000815260040161192890613113565b60405180910390fd5b565b6000600660009054906101000a900473ffffffffffffffffffffffffffffffffffffffff16905081600660006101000a81548173ffffffffffffffffffffffffffffffffffffffff021916908373ffffffffffffffffffffffffffffffffffffffff1602179055508173ffffffffffffffffffffffffffffffffffffffff168173ffffffffffffffffffffffffffffffffffffffff167f8be0079c531659141344cd1fd0a4f28419497f9722a3daafe3b4186f6b6457e060405160405180910390a35050565b8173ffffffffffffffffffffffffffffffffffffffff168373ffffffffffffffffffffffffffffffffffffffff1603611a67576040517f08c379a0000000000000000000000000000000000000000000000000000000008152600401611a5e9061317f565b60405180910390fd5b80600560008573ffffffffffffffffffffffffffffffffffffffff1673ffffffffffffffffffffffffffffffffffffffff16815260200190815260200160002060008473ffffffffffffffffffffffffffffffffffffffff1673ffffffffffffffffffffffffffffffffffffffff16815260200190815260200160002060006101000a81548160ff0219169083151502179055508173ffffffffffffffffffffffffffffffffffffffff168373ffffffffffffffffffffffffffffffffffffffff167f17307eab39ab6107e8899845ad3d59bd9653f200f220920489ca2b5937696c3183604051611b58919061231c565b60405180910390a3505050565b611b7084848461157f565b611b7c84848484611d4e565b611bbb576040517f08c379a0000000000000000000000000000000000000000000000000000000008152600401611bb290613211565b60405180910390fd5b50505050565b606060405180602001604052806000815250905090565b606060006001611be784611ed5565b01905060008167ffffffffffffffff811115611c0657611c056125c3565b5b6040519080825280601f01601f191660200182016040528015611c385781602001600182028036833780820191505090505b509050600082602001820190505b600115611c9b578080600190039150507f3031323334353637383961626364656600000000000000000000000000000000600a86061a8153600a8581611c8f57611c8e613231565b5b04945060008503611c46575b819350505050919050565b60008073ffffffffffffffffffffffffffffffffffffffff16611cc883611878565b73ffffffffffffffffffffffffffffffffffffffff1614159050919050565b611cf18383612028565b611cfe6000848484611d4e565b611d3d576040517f08c379a0000000000000000000000000000000000000000000000000000000008152600401611d3490613211565b60405180910390fd5b505050565b50505050565b50505050565b6000611d6f8473ffffffffffffffffffffffffffffffffffffffff16612245565b15611ec8578373ffffffffffffffffffffffffffffffffffffffff1663150b7a02611d9861140b565b8786866040518563ffffffff1660e01b8152600401611dba94939291906132b5565b6020604051808303816000875af1925050508015611df657506040513d601f19601f82011682018060405250810190611df39190613316565b60015b611e78573d8060008114611e26576040519150601f19603f3d011682016040523d82523d6000602084013e611e2b565b606091505b506000815103611e70576040517f08c379a0000000000000000000000000000000000000000000000000000000008152600401611e6790613211565b60405180910390fd5b805181602001fd5b63150b7a0260e01b7bffffffffffffffffffffffffffffffffffffffffffffffffffffffff1916817bffffffffffffffffffffffffffffffffffffffffffffffffffffffff191614915050611ecd565b600190505b949350505050565b600080600090507a184f03e93ff9f4daa797ed6e38ed64bf6a1f0100000000000000008310611f33577a184f03e93ff9f4daa797ed6e38ed64bf6a1f0100000000000000008381611f2957611f28613231565b5b0492506040810190505b6d04ee2d6d415b85acef81000000008310611f70576d04ee2d6d415b85acef81000000008381611f6657611f65613231565b5b0492506020810190505b662386f26fc100008310611f9f57662386f26fc100008381611f9557611f94613231565b5b0492506010810190505b6305f5e1008310611fc8576305f5e1008381611fbe57611fbd613231565b5b0492506008810190505b6127108310611fed576127108381611fe357611fe2613231565b5b0492506004810190505b60648310612010576064838161200657612005613231565b5b0492506002810190505b600a831061201f576001810190505b80915050919050565b600073ffffffffffffffffffffffffffffffffffffffff168273ffffffffffffffffffffffffffffffffffffffff1603612097576040517f08c379a000000000000000000000000000000000000000000000000000000000815260040161208e9061338f565b60405180910390fd5b6120a081611ca6565b156120e0576040517f08c379a00000000000000000000000000000000000000000000000000000000081526004016120d7906133fb565b60405180910390fd5b6120ee600083836001611d42565b6120f781611ca6565b15612137576040517f08c379a000000000000000000000000000000000000000000000000000000000815260040161212e906133fb565b60405180910390fd5b6001600360008473ffffffffffffffffffffffffffffffffffffffff1673ffffffffffffffffffffffffffffffffffffffff16815260200190815260200160002060008282540192505081905550816002600083815260200190815260200160002060006101000a81548173ffffffffffffffffffffffffffffffffffffffff021916908373ffffffffffffffffffffffffffffffffffffffff160217905550808273ffffffffffffffffffffffffffffffffffffffff16600073ffffffffffffffffffffffffffffffffffffffff167fddf252ad1be2c89b69c2b068fc378daa952ba7f163c4a11628f55a4df523b3ef60405160405180910390a4612241600083836001611d48565b5050565b6000808273ffffffffffffffffffffffffffffffffffffffff163b119050919050565b6000604051905090565b600080fd5b600080fd5b60007fffffffff0000000000000000000000000000000000000000000000000000000082169050919050565b6122b18161227c565b81146122bc57600080fd5b50565b6000813590506122ce816122a8565b92915050565b6000602082840312156122ea576122e9612272565b5b60006122f8848285016122bf565b91505092915050565b60008115159050919050565b61231681612301565b82525050565b6000602082019050612331600083018461230d565b92915050565b600081519050919050565b600082825260208201905092915050565b60005b83811015612371578082015181840152602081019050612356565b60008484015250505050565b6000601f19601f8301169050919050565b600061239982612337565b6123a38185612342565b93506123b3818560208601612353565b6123bc8161237d565b840191505092915050565b600060208201905081810360008301526123e1818461238e565b905092915050565b600073ffffffffffffffffffffffffffffffffffffffff82169050919050565b6000612414826123e9565b9050919050565b61242481612409565b811461242f57600080fd5b50565b6000813590506124418161241b565b92915050565b60006020828403121561245d5761245c612272565b5b600061246b84828501612432565b91505092915050565b6000819050919050565b61248781612474565b811461249257600080fd5b50565b6000813590506124a48161247e565b92915050565b6000602082840312156124c0576124bf612272565b5b60006124ce84828501612495565b91505092915050565b6124e081612409565b82525050565b60006020820190506124fb60008301846124d7565b92915050565b6000806040838503121561251857612517612272565b5b600061252685828601612432565b925050602061253785828601612495565b9150509250929050565b61254a81612474565b82525050565b60006020820190506125656000830184612541565b92915050565b60008060006060848603121561258457612583612272565b5b600061259286828701612432565b93505060206125a386828701612432565b92505060406125b486828701612495565b9150509250925092565b600080fd5b7f4e487b7100000000000000000000000000000000000000000000000000000000600052604160045260246000fd5b6125fb8261237d565b810181811067ffffffffffffffff8211171561261a576126196125c3565b5b80604052505050565b600061262d612268565b905061263982826125f2565b919050565b600067ffffffffffffffff821115612659576126586125c3565b5b602082029050602081019050919050565b600080fd5b600061268261267d8461263e565b612623565b905080838252602082019050602084028301858111156126a5576126a461266a565b5b835b818110156126ce57806126ba8882612432565b8452602084019350506020810190506126a7565b5050509392505050565b600082601f8301126126ed576126ec6125be565b5b81356126fd84826020860161266f565b91505092915050565b60006020828403121561271c5761271b612272565b5b600082013567ffffffffffffffff81111561273a57612739612277565b5b612746848285016126d8565b91505092915050565b61275881612301565b811461276357600080fd5b50565b6000813590506127758161274f565b92915050565b6000806040838503121561279257612791612272565b5b60006127a085828601612432565b92505060206127b185828601612766565b9150509250929050565b600080fd5b600067ffffffffffffffff8211156127db576127da6125c3565b5b6127e48261237d565b9050602081019050919050565b82818337600083830152505050565b600061281361280e846127c0565b612623565b90508281526020810184848401111561282f5761282e6127bb565b5b61283a8482856127f1565b509392505050565b600082601f830112612857576128566125be565b5b8135612867848260208601612800565b91505092915050565b6000806000806080858703121561288a57612889612272565b5b600061289887828801612432565b94505060206128a987828801612432565b93505060406128ba87828801612495565b925050606085013567ffffffffffffffff8111156128db576128da612277565b5b6128e787828801612842565b91505092959194509250565b6000806040838503121561290a57612909612272565b5b600061291885828601612432565b925050602061292985828601612432565b9150509250929050565b7f4e487b7100000000000000000000000000000000000000000000000000000000600052602260045260246000fd5b6000600282049050600182168061297a57607f821691505b60208210810361298d5761298c612933565b5b50919050565b7f4552433732313a20617070726f76616c20746f2063757272656e74206f776e6560008201527f7200000000000000000000000000000000000000000000000000000000000000602082015250565b60006129ef602183612342565b91506129fa82612993565b604082019050919050565b60006020820190508181036000830152612a1e816129e2565b9050919050565b7f4552433732313a20617070726f76652063616c6c6572206973206e6f7420746f60008201527f6b656e206f776e6572206f7220617070726f76656420666f7220616c6c000000602082015250565b6000612a81603d83612342565b9150612a8c82612a25565b604082019050919050565b60006020820190508181036000830152612ab081612a74565b9050919050565b7f4d6178696d756d20737570706c79207265616368656400000000000000000000600082015250565b6000612aed601683612342565b9150612af882612ab7565b602082019050919050565b60006020820190508181036000830152612b1c81612ae0565b9050919050565b7f596f7520617265206e6f742077686974656c697374656420666f72205068617360008201527f6520310000000000000000000000000000000000000000000000000000000000602082015250565b6000612b7f602383612342565b9150612b8a82612b23565b604082019050919050565b60006020820190508181036000830152612bae81612b72565b9050919050565b7f4e487b7100000000000000000000000000000000000000000000000000000000600052601160045260246000fd5b6000612bef82612474565b9150612bfa83612474565b9250828201905080821115612c1257612c11612bb5565b5b92915050565b6000612c2382612474565b91507fffffffffffffffffffffffffffffffffffffffffffffffffffffffffffffffff8203612c5557612c54612bb5565b5b600182019050919050565b7f596f7520617265206e6f742077686974656c697374656420666f72205068617360008201527f6520320000000000000000000000000000000000000000000000000000000000602082015250565b6000612cbc602383612342565b9150612cc782612c60565b604082019050919050565b60006020820190508181036000830152612ceb81612caf565b9050919050565b7f4552433732313a2063616c6c6572206973206e6f7420746f6b656e206f776e6560008201527f72206f7220617070726f76656400000000000000000000000000000000000000602082015250565b6000612d4e602d83612342565b9150612d5982612cf2565b604082019050919050565b60006020820190508181036000830152612d7d81612d41565b9050919050565b7f4552433732313a20696e76616c696420746f6b656e2049440000000000000000600082015250565b6000612dba601883612342565b9150612dc582612d84565b602082019050919050565b60006020820190508181036000830152612de981612dad565b9050919050565b7f4552433732313a2061646472657373207a65726f206973206e6f74206120766160008201527f6c6964206f776e65720000000000000000000000000000000000000000000000602082015250565b6000612e4c602983612342565b9150612e5782612df0565b604082019050919050565b60006020820190508181036000830152612e7b81612e3f565b9050919050565b7f4e487b7100000000000000000000000000000000000000000000000000000000600052603260045260246000fd5b600081905092915050565b6000612ec782612337565b612ed18185612eb1565b9350612ee1818560208601612353565b80840191505092915050565b6000612ef98285612ebc565b9150612f058284612ebc565b91508190509392505050565b7f4f776e61626c653a206e6577206f776e657220697320746865207a65726f206160008201527f6464726573730000000000000000000000000000000000000000000000000000602082015250565b6000612f6d602683612342565b9150612f7882612f11565b604082019050919050565b60006020820190508181036000830152612f9c81612f60565b9050919050565b7f4552433732313a207472616e736665722066726f6d20696e636f72726563742060008201527f6f776e6572000000000000000000000000000000000000000000000000000000602082015250565b6000612fff602583612342565b915061300a82612fa3565b604082019050919050565b6000602082019050818103600083015261302e81612ff2565b9050919050565b7f4552433732313a207472616e7366657220746f20746865207a65726f2061646460008201527f7265737300000000000000000000000000000000000000000000000000000000602082015250565b6000613091602483612342565b915061309c82613035565b604082019050919050565b600060208201905081810360008301526130c081613084565b9050919050565b7f4f776e61626c653a2063616c6c6572206973206e6f7420746865206f776e6572600082015250565b60006130fd602083612342565b9150613108826130c7565b602082019050919050565b6000602082019050818103600083015261312c816130f0565b9050919050565b7f4552433732313a20617070726f766520746f2063616c6c657200000000000000600082015250565b6000613169601983612342565b915061317482613133565b602082019050919050565b600060208201905081810360008301526131988161315c565b9050919050565b7f4552433732313a207472616e7366657220746f206e6f6e20455243373231526560008201527f63656976657220696d706c656d656e7465720000000000000000000000000000602082015250565b60006131fb603283612342565b91506132068261319f565b604082019050919050565b6000602082019050818103600083015261322a816131ee565b9050919050565b7f4e487b7100000000000000000000000000000000000000000000000000000000600052601260045260246000fd5b600081519050919050565b600082825260208201905092915050565b600061328782613260565b613291818561326b565b93506132a1818560208601612353565b6132aa8161237d565b840191505092915050565b60006080820190506132ca60008301876124d7565b6132d760208301866124d7565b6132e46040830185612541565b81810360608301526132f6818461327c565b905095945050505050565b600081519050613310816122a8565b92915050565b60006020828403121561332c5761332b612272565b5b600061333a84828501613301565b91505092915050565b7f4552433732313a206d696e7420746f20746865207a65726f2061646472657373600082015250565b6000613379602083612342565b915061338482613343565b602082019050919050565b600060208201905081810360008301526133a88161336c565b9050919050565b7f4552433732313a20746f6b656e20616c7265616479206d696e74656400000000600082015250565b60006133e5601c83612342565b91506133f0826133af565b602082019050919050565b60006020820190508181036000830152613414816133d8565b905091905056fea2646970667358221220eae9e20762033436aea9d178ca3b7c2c166abfd9d958e06bef7bf5815e21385764736f6c63430008120033",
  "linkReferences": {},
  "deployedLinkReferences": {}
}